:0300000002047D7A
:0C047D00787FE4F6D8FD7581740204C499
:100777004943BFA8BAC5A3BA004944BFA8BAC5A38D
:10078700BA0012345678EDCBA9871234567801FE99
:0C07970001FE00000001FFFFFFFFFFFF5C
:1005F500015AFF015BFFC100C10149000000000075
:10060500000000000000045D000000005B00090020
:1006150000000000000000000000000000000000D5
:10062500000000000000000000000D4D000000006B
:0C063500000000000000000000015C005C
:10000300D3EF9400EE94004015E4FDFC0DBD000118
:0E0013000CED64504C70F5EF1F70E51E80E29E
:0100210022BC
:0A002600EF1FAC0670011E4C6012C3
:10003000E4F523E523C394FA50EC00000000052307
:0200400080F14D
:01004200229B
:100856007F0612088F7F0C12088F7F0112088F7F88
:06086600057E00020026E1
:0A08D5007F3012088F7F0102088FA8
:10087E008F261208A0D2A0C2A1852680D2A2C2A223
:01088E002247
:10088F008F251208A0C2A0C2A1852580D2A2C2A224
:01089F002236
:0F08A0007580FFC2A0D2A1D2A22087FDC2A222E2
:04068800E4FD7F010D
:10068C008F238D24E523B40108E5244480FF120850
:10069C008FE523B40208E5244490FF12088FE5236C
:1006AC00B4030AE52444802408FF12088FE523B420
:0D06BC00040AE52444902408FF12088F2250
:0607CE007BFF7A0779773A
:1007D4008B238A248925AB23AA24A9251203B1FFDC
:1007E400601012087E74012525F525E43524F524CE
:0307F40080E4227C
:10081900758920759850758DFD858D8BD28ED2AFD7
:0F082900D2AC759A50759CFD758E1075AF01227B
:0808DF008F993099FDC29922A6
:0607A3008B088A09890A97
:1007A900E4F50BAB08AA09A90A1203B1D3940040D6
:1007B90013050AE50A7002050914F91203B1FF12BB
:0407C90008DF80DFE6
:0107CD002209
:0B08CA008F9BE59A30E1FB539AFD2262
:10083800D3EF9400EE940040147D587C02ED1D70B7
:0D084800011CED4C70F7EF1F70E61E80E301
:010855002280
:0601C0008B238A2489252F
:1001C600E4FFEFC3952AE5296480F874809840031C
:1001D6000202B8AB26AA27A9288F827583001203CC
:1001E600CA54F0C4540FFEAB23AA24A92575F00205
:1001F600EFA4F58285F083EE12043C75F002EFA4BD
:10020600F58285F0831203CAFEC3940AAB23AA249F
:10021600A9254014EE2437FE75F002EFA4F5828579
:10022600F083EE12043C800F75F002EFA4F5828590
:10023600F08374301203F7AB26AA27A9288F82759C
:1002460083001203CA540FFEAB23AA24A92575F016
:1002560002EFA42401F582E435F0F583EE12043CA6
:10026600AB23AA24A92575F002EFA42401F582E4A4
:1002760035F0F5831203CAFEC3940A4018EE2437FC
:10028600FE75F002EFA42401F582E435F0F583EE65
:1002960012043C8019AB23AA24A92575F002EFA409
:1002A6002401F582E435F0F58374301203F70F026A
:0202B60001C87D
:0102B8002223
:030023000207428F
:10074200C0E0C0D075D000C000C00730981EC2986B
:1007520085995AE55CC3940D5010AF5A1208DF74A4
:100762004D255CF8A65A055C8002D200D007D00065
:05077200D0D0D0E03200
:030043000207F7BA
:1007F700C0E0C0D075D000C007E59A30E00D539A2D
:10080700FED201859B5BAF5B1208DFD007D0D0D04B
:02081700E032CD
:1002B900E4F5211208191208561206C91208E712A4
:1002C900086C1206881207CE7F6F1208DF7F6B1247
:1002D90008DFD2B730003EC2B77526007527007512
:1002E900284D752900752A0D7B017A0079091201BB
:1002F900C01208561206887BFF7A0779801207D444
:10030900E4FD7F0212068C7B017A0079091207D479
:10031900E4F55CC2007B007A0079617F5212058A9C
:100329008F227B007A0079611205098F22E52270FC
:10033900A3E50CB40105750C018099E4F5217461FC
:100349002521F8E6FE745D2521F8A606745D2521B0
:10035900F8E6FF1208DF750C010521E521C39404B5
:1003690040DCC2B775260075270075285D75290020
:10037900752A047B017A0079001201C0120856120D
:1003890006881207CEE4FD7F0212068C7B017A00F3
:1003990079001207D4E52260030202DDFB7A0079B5
:0803A900611205098F2280EDAD
:03064100010C01A8
:08058A008F238B248A258926AA
:100592007D087F081208AF7D077F0D1207077D03D4
:1005A2007F141208BD8523297540017541007542EB
:1005B200007543297544007545007546277B007A0E
:1005C2000079297F0C120046EF7025E5286410455A
:1005D20027701DF50CAB24AA25A926E52912042AA9
:1005E200AB24AA25A926900001E52A12043C800228
:0205F2007FFE8A
:0105F40022E4
:060509008B238A248925E2
:10050F00E4F5277D087F081208AFE4FD7F0D120781
:10051F00077D807F0E1208AF752A93752B207540CB
:10052F000275410075420075432A754400754500F8
:10053F007546287B007A00792A7F0C1200468F2699
:10054F00E526702DF50CFF742A2FF8E6AB23AA24AD
:10055F00A9258F8275830012043C742A2FF8E66256
:10056F00270FBF04E2742A2FF8E66527600375266C
:0A057F00FE7D807F0E1208BDAF263E
:01058900224F
:1006C900D2B600C2B600D2B6007D0F7F011207076D
:1006D900007D3D7F111207077D1E7F2D120707E45C
:1006E900FD7F2C1207077D8D7F2A1207077D3E7F2C
:0E06F9002B1207077D407F151207077F002296
:06064500AC07AB05E4FE6A
:10064B00E4FEC2B3C2B2EF25E0547E4480FF7D08C6
:10065B00EF30E703D38001C392B4D2B3EF25E0FFB1
:10066B00C2B3DDEC7D08D2B3EE25E0FEA2B5E433D8
:0C067B004206C2B3DDF0D2B2D2B3AF062B
:010687002250
:10070700C2B3C2B2EF25E0547EFF7E08EF30E703A5
:10071700D38001C392B4D2B3EF25E0FFC2B3DEECBE
:100727007E08ED30E703D38001C392B4D2B3ED2541
:0A073700E0FDC2B3DEECD2B2D2B393
:010741002295
:0D08BD00120645AE07AF04EB4EFD02070723
:0E08AF00120645AE07AF04EBF45EFD0207072C
:080046008F3C8B3D8A3E893F8F
:10004E007547FEE4F548F549E53C24F4600C24FEC2
:10005E00700E7548127549108006754877754930CF
:10006E00E5484480FD7F021207077D807F04120859
:10007E00AFE4FD7F011207077D807F0A1208BDE401
:10008E00F54BF54CC3E54C9540E54B9400501FAB3A
:10009E003DAA3EA93F854C82854B831203CAFD7F44
:1000AE0009120707054CE54C70DA054B80D6AD3CBE
:1000BE007F01120707E53CB40C077D807F0D120807
:1000CE00BD754B02754C587F0412064B8F4AE54C9A
:1000DE00154C7002154BE54C454B6009E54A20E086
:1000EE0004554960E27D807F0D1208AFE54C454B0B
:1000FE0070030201AF7F0612064BEF541B60030222
:10010E0001ACF547E54A554830E0037547FFE53C3D
:10011E00640C60030201AF7F0A12064B8F4A7F0CFC
:10012E0012064BEF5407FD6021E54A24FFFFE4342D
:10013E00FFFEEF7803C333CE33CED8F97C002DFF0C
:10014E00EC3EAB44AA45A946800FE54A75F008A4DB
:10015E00FFAB44AA45A946E5F08FF012045EE54ACE
:10016E007003754A01E54AD394124003754A12E4AE
:10017E00F54BF54CC3E54C954AE54B940050227F68
:10018E000912064BAB41AA42A943854C82854B838B
:10019E00EF12043C054CE54C70DA054B80D67547E2
:1001AE00FE7D807F0C1208BDE4FD7F01120707AFB4
:0101BE0047F9
:0101BF00221D
:10086C007F1412064BEF540370077D037F1412089C
:01087C00BDBE
:01087D002258
:0708E7007D037F140208AF3E
:100489000202B9E493A3F8E493A34003F68001F2CE
:1004990008DFF48029E493A3F85407240CC8C33374
:1004A900C4540F4420C8834004F456800146F6DF43
:1004B900E4800B01020408102040809005F5E47ED9
:1004C900019360BCA3FF543F30E509541FFEE49338
:1004D900A360010ECF54C025E060A840B8E493A3FF
:1004E900FAE493A3F8E493A3C8C582C8CAC583CA2A
:1004F900F0A3C8C582C8CAC583CADFE9DEE780BEE2
:0106440000B5
:1003B100BB010689828A83E0225002E722BBFE024A
:0903C100E32289828A83E493227D
:1003CA00BB010CE58229F582E5833AF583E02250E8
:1003DA0006E92582F8E622BBFE06E92582F8E22232
:0D03EA00E58229F582E5833AF583E493224C
:1003F700BB010FF8E58229F582E5833AF583E0280A
:10040700F0225009C58229F8E58226F622BBFE09AB
:10041700C58229F8E22582F222F8EA2583F583E9E5
:03042700932822F5
:10042A00BB010689828A83F0225002F722BBFE01B1
:02043A00F322AB
:10043C00F8BB010DE58229F582E5833AF583E8F0F6
:10044C00225006E92582C8F622BBFE05E92582C8A2
:02045C00F2228A
:10045E00BB010A89828A83F0E5F0A3F0225006F7E9
:0F046E0009A7F01922BBFE06F3E5F009F31922E6
:00000001FF
